:020000041000EA
:1000000000B5324B212058609868022188439860DF
:10001000D860186158612E4B002199600221596106
:100020000121F02299502B49196001219960352056
:1000300000F044F80222904214D00621196600F024
:1000400034F8196E01211966002018661A6600F04E
:100050002CF8196E196E196E052000F02FF8012189
:100060000842F9D1002199601B49196000215960AB
:100070001A491B48016001219960EB211966A021F2
:10008000196600F012F800219960164914480160C1
:100090000121996001BC002800D000471248134993
:1000A000086003C880F30888084703B5996A0420EC
:1000B0000142FBD001200142F8D103BD02B5186610
:1000C0001866FFF7F2FF186E186E02BD00000240BE
:1000D000000000180000070000035F00212200005C
:1000E000F4000018222000A00001001008ED00E03C
:1000F00000000000000000000000000074B24E7A12
:1001000000200420F7010010CB010010CD010010E9
:10011000C9010010C9010010C9010010C901001077
:10012000C9010010C9010010C9010010CF01001061
:10013000C9010010C9010010D1010010D301001045
:10014000C1010010C1010010C1010010C101001067
:10015000C1010010C1010010C1010010C101001057
:10016000C1010010C1010010C1010010C101001047
:10017000C1010010C1010010C1010010C101001037
:10018000C1010010C1010010C1010010C101001027
:10019000C1010010C1010010C1010010C101001017
:1001A000C1010010C1010010C1010010C101001007
:1001B000C1010010C1010010C1010010C1010010F7
:1001C000EFF30580103800BE00BE00BE00BE00BECA
:1001D00000BE00BEF2EB8871C41D0010E01D0010CF
:1001E0003802001090A31AE71E481F49086006C88D
:1001F00081F3088810471D480068002801D019487D
:10020000F3E70DA40ECC002902D000F012F8F9E7B4
:100210001749184A002000E001C19142FCD116495B
:100220008847164988471649884700BEFDE701C937
:1002300001C29A42FBD37047E01D0010C0000020AD
:10024000E8010020081F0010000004200000042026
:10025000081F0010001004200010042000000000FF
:10026000704700000000000008ED00E0000000D032
:10027000E8010020DC0900200D190010D502001053
:1002800005190010F8B5C04606480749091A8B1031
:10029000C90FC91810B5491003D0044B002B00D06A
:1002A000984710BDE8010020E80100200000000090
:1002B000054B10B5002B03D00449054800E000BFF2
:1002C000FFF7E2FF10BDC04600000000A4090020B7
:1002D000C81C0010F0B5DE4657464E464546E121A3
:1002E000E0B5090383B0AD4800F04CFE02210020C8
:1002F00000F076F90221012000F072F900230122BA
:100300000821A64800F0CCFE0121A44800F004FF1B
:1003100001F044FC1F211A2000F062F900220021A4
:100320001A2000F075F900211A2000F083F9E0216D
:100330009B4AC901136801200B409A4980270B6032
:10034000994BFF001968994B20264B409849934DD3
:100350000B4098490B60BE23DB01136101F03AFCAE
:10036000954B964A9B461860C3021340944A1A4321
:10037000944B01920093FF18FF239A46312399462C
:10038000A02382019049DB05D318196000995960B8
:100390008021890099600199196108218B4B1960AE
:1003A000012386218340A020C900C005435080213D
:1003B000874B4904D21813680B42FCD10822854BA5
:1003C00077491A60F8320B681342FCD08B681342ED
:1003D00006D18021724B4900DA689A680A42FBD044
:1003E0007D4B009C9846434620887C49584301F049
:1003F00081F920800234A742F5D1AB691E42FCD1BD
:10040000AA232B60AB691E42FCD155232B60AB693C
:100410001E42FCD102232B603200AB691A401E42FF
:10042000FAD1FF202A60009A11880B0AAC69264293
:10043000FCD12B60AC692642FCD1544658400C409C
:1004400043B22C60002B00DAA1E0400043B2002B45
:1004500000DA96E0400043B2002B00DA8BE0400067
:1004600043B2002B00DA80E0400043B2002B76DB81
:10047000400043B2002B6CDB400043B2002B62DB38
:10048000400043B24000002B02DA58004B4658406F
:1004900041404BB2080650D449004BB2002B46DB1A
:1004A00049004BB2002B3CDB49004BB2002B32DB46
:1004B00049004BB2002B28DB49004BB2002B1EDB5E
:1004C00049004BB2002B14DB49004BB2002B0BDB75
:1004D0004900C8B202329742A6D1AB691E42FCD194
:1004E0005B46286018684BE749465B004B40D8B232
:1004F000F0E749465B004B405BB21900E6E749462E
:100500005B004B405BB21900DCE749465B004B40A7
:100510005BB21900D2E749465B004B405BB2190061
:10052000C8E749465B004B405BB21900BEE749464D
:100530005B004B405BB21900B4E749465B004B409F
:100540005BB21900AAE748465B0043405BB2180063
:1005500098E748465B0043405BB218008EE7484688
:100560005B0043405BB2180084E748465B004340B1
:100570005BB218007AE748465B0043405BB2180064
:100580006FE748465B0043405BB2180064E74846AB
:100590005B0043405BB2180059E7C046004003408F
:1005A00000C0044000D0044008C00440090000011D
:1005B0000F00000F08D0044094090020FF7F00FFC7
:1005C00025001200E80100200CC0044000E00440B7
:1005D0001000005000F00440E40C0000FF0F000089
:1005E00010B54024074A83009A181268C00054408E
:1005F000C0222240044C1B191A60044BC0184160F1
:1006000010BDC04604C0014004D00140004001407C
:10061000064B8000C3181B68C90092000A435A4069
:100620000C231340024A80180360704704C0014045
:1006300004D001408000002904D0054BC01840239D
:1006400003607047034BC01840230360F9E7C046BE
:1006500004E0014004F001400FB400B5084883B045
:1006600001F07EFA049B002B07D005A91800019128
:1006700001F02EF9034801F073FA012001F040F96E
:10068000C81C0010D81C001070B58C461600EFF383
:10069000108472B60F490B68002BFCD0BFF35F8F3C
:1006A0006346DB08C5180722C05C63461A40012375
:1006B00093401A000240034207D118432870BFF349
:1006C0005F8F0A6084F3108870BD61463000FFF7C9
:1006D000C3FFC0462C0100D0F8B5CE4647468C4635
:1006E00080B51C00EFF3108872B61C490B68002B14
:1006F000FCD0BFF35F8FA24221D80723994602E0C6
:100700000132944218D34946012611408E40D30845
:10071000C718C35C1E42F3D1100033433B70BFF3D4
:100720005F8F00220D4B1A6088F3108800280EDBC3
:10073000C0BCB946B046F8BD01204042EFE7BFF368
:100740005F8F00230B6088F31088012040426346CE
:10075000002BEDD00898FFF77FFFC0462C0100D09A
:10076000044A1078431CDBB2172B00D910231370F6
:100770007047C046980100200021044B044ABFF393
:100780005F8F02C39342FAD17047C046000100D088
:10079000800100D0084B094A1360094A1360094AD6
:1007A0001360094A1360094A1360094A1360094A31
:1007B0001360094A136070478080808000E400E085
:1007C00004E400E008E400E00CE400E010E400E0F1
:1007D00014E400E018E400E01CE400E01F231840EB
:1007E0001E3B8340002905D0C021044A49005350D4
:1007F00013607047802201498B50FAE700E100E066
:1008000070B50D00EFF3108672B60F4A1368002B17
:10081000FCD0BFF35F8F0D4B10309B6884001B59D9
:100820000B4A934203D09D4201D000F037FE074BA4
:100830009B681D51BFF35F8FBFF35F8F0022024B98
:100840001A6086F3108870BD240100D000ED00E02E
:10085000C1010010024BC918890001607047C046F1
:100860004000003470B5114C114DAC420FD2FF2640
:100870002368002B0CD0FFF773FF01002000FFF767
:10088000E9FFA680BFF35F8F0834AC42F0D370BDA0
:10089000FFF766FF01002000FFF7DCFF2671BFF3C2
:1008A0005F8F0834AC42E3D3F1E7C046E00100209B
:1008B000E80100200A4B1968EFF3108072B60A684D
:1008C000002AFCD0BFF35F8F1B68BFF35F8F00224D
:1008D0001A6080F3108840BF002000217047C04696
:1008E000D0090020F0B5DE4657464E464546E0B5F5
:1008F00085B0EFF3058303221A40B34B91005F5894
:10090000012393409B4602925A468846AF4B1A6099
:10091000AF4B03935B46AF4843630823FE5E002E54
:1009200037DABB881BB2002B00DBA4E0BB79002BBD
:1009300000D0E5E00823F95E002920DB4B007A694E
:100940005B18DB00D3189D68DC686B1C00D104E1E8
:10095000A04801004144826A0B69AE1A9B1A9E426C
:1009600015D30123026A029883401A420FD0994896
:1009700000F0C0FA8C4202DCCCD18542CAD940BF1B
:1009800005B0F0BCBB46B246A946A046F0BD0D611D
:10099000EDE77A69730091469B19DB0099444B4659
:1009A0009C68DD6800F0A6FA8D42BADC00D1F6E062
:1009B000002D00DADBE04A464B4652691B6992463D
:1009C000039A934200D1CCE04A460821785E5288CF
:1009D0000004514610439847009001910099019AF4
:1009E0000B00134300D1C2E013000A00002B00DB10
:1009F000D9E020002900801A99414B469860D960BF
:100A000000229B5E002B00DA8BE75D007C69EA1810
:100A1000D200A21800949468D268A2468A4200DDEF
:100A20007FE702D1844200D97BE70824A4463B81BA
:100A3000BC44009C00972F006546B4463E0006E08B
:100A40005E00F218D200A2189768D268BA468A42AD
:100A500007DC00D1B4E0F318DB00E518E35E002BFF
:100A6000EEDA66464A46009F13802E80BB881BB292
:100A7000002B00DA5AE73A69EFF3108172B6136877
:100A8000002BFCD0BFF35F8F0123BE885B42BB808D
:100A900036B23B69BFF35F8F00221A6081F3108882
:100AA000002E00DA42E73B0008333A0099467D69A0
:100AB00073009B190824115FDB004846EB180029DE
:100AC00013DB9C680093A446DC6806E0A34240D098
:100AD0000023F95E3800002906DB4F007F18FF0075
:100AE000EF19FB68A342F1DD009B068000201E5E2B
:100AF0001980002EDCDA1700BB79002B00D119E732
:100B00000023BB710823F95E4B1C00D137E73D0081
:100B10000835AC467C6903E084464B1C00D109E7EC
:100B20004B005B18DB00E0180A00E15E43881BB253
:100B3000002BF1DA01256D42EE178560C6600825AD
:100B40007B5F9342E9D0634619803B8903803A81F9
:100B5000E3E7BB686345BBD9C6E7631C00D0F7E693
:100B600005E7534650461B699847002823D14B465A
:100B70001B883A693B81EFF3108372B61168002934
:100B8000FCD0BFF35F8F49467A880A803A697E803D
:100B9000BFF35F8F0021116083F31088C1E68442A8
:100BA00000D805E7BDE60B4800F0A4F9009B019CC6
:100BB000C018614121E753460CCB009201930DE729
:100BC000824500D847E74CE7BC0900203C7005404F
:100BD000E50800100040054070B52D4C2569002D3A
:100BE00004D00A212B48FFF735FE70BD2A4E0321A1
:100BF000294800F075F9E660FFF7B2FD274B0322A4
:100C0000C018D02322701B061B6801216370244B7F
:100C10008000A3600F232061022063806369494242
:100C2000A18019800231198647311D83585218312D
:100C30005A5275325C399952183201319952183230
:100C400001319952183201319952083518329D52AA
:100C50000231183299521832013199521832013149
:100C60009952183201319952183201319952183281
:100C7000013199520B4B0C49DC6001303562FFF7B2
:100C8000BFFD01210320FFF7A9FD084B1D60A8E768
:100C90009C010020D00900200040054040000034A5
:100CA000FFFF1000BC090020E50800103860054077
:100CB00070B582B00092019301000269EFF31084D5
:100CC00072B61368002BFCD0BFF35F8F0223C85E9F
:100CD0000D6900283FDB4A69430016001B18DB0042
:100CE000D218F35A4B80BFF35F8F00232B6084F33D
:100CF0001088069B1361079B5361009B019C9360C6
:100D0000D460538801335B045B0C1D1C002B20D086
:100D1000ACB20304558023430D69EFF3108C72B617
:100D20002C68002CFCD0BFF35F8F8C8814808880E7
:100D30000A69BFF35F8F002010608CF310880A7877
:100D400001309040CA68084952181060180002B07B
:100D500070BD0125DCE7BFF35F8F00232B6084F3B8
:100D60001088013BF2E7C0463C20000010B54389E3
:100D70000A1493421ADD53009B184269DB00D31812
:100D80000469EFF3108C72B62268002AFCD0BFF31E
:100D90005F8F5A88090494B2090C8A4208D003690B
:100DA000BFF35F8F00221A608CF31088002010BD03
:100DB000094A22435A80012302698371BFF35F8F7E
:100DC000002111608CF31088027804499340C268B6
:100DD000012052181360EAE70080FFFF3C2000006A
:100DE000F0B5CE46474680B504000D0085B0EFF360
:100DF00005868946002E10D0364900204B6AAB424A
:100E000006D38A6A5B1B591E8B41A242404118439C
:100E100005B0C0BCB946B046F0BD2F4FFB683A786C
:100E200098461800039200F065F8039A131D424695
:100E30009B009B5822001B1A9C462B00121A8B41C8
:100E40009E4210DC0DD020BF224A0020536A4B4541
:100E5000DED3926A5B1B591E8B41A242404118436C
:100E6000D6E79445EFD900F04DF822002B00121A76
:100E70008B41002B1BDB00230193184B22000093B6
:100E800038002B00FFF714FF002810DD114B5A6AC1
:100E90004A451CD39B6AA34217D301003800FFF7D1
:100EA00065FF0C4A0020536A4B45B1D3D1E7094A8C
:100EB0000020536A4B45ABD30020926A5B1BA242D1
:100EC00040415A1E93411843A2E74A45E5D120BF4D
:100ED000E3E7C046004005409C010020B508001033
:100EE00010B5024A0248FFF7CFFB10BDDC1C001012
:100EF000680900200300416A0A00986A596A8A4218
:100F0000FAD17047034B596A0A00986A596A9142AC
:100F1000FAD170470040054070B505000E00184A30
:100F2000536A1900946A536A8B42FAD1200019005F
:100F30002C00350024184D41AB4216D813D0104B6D
:100F40002A005B6A9D4203D90D494B6A9342FCD348
:100F5000934207D10A4A02E0516A994202D1916A4A
:100F6000A142F9D370BDA042E9D9054B5B6A1C00D0
:100F70005A1CEFD0012201246442E5175242E3E7F4
:100F800000400540F8B5040006200D0000F0D8F937
:100F9000002843D0364B3749E3185A1E934180222C
:100FA0005B429B0D12049B059B18334A1360334A26
:100FB000136018000A689043FBD12D4B304AE318A8
:100FC00059424B4180215B0049000620995200F0B4
:100FD000B7F92900C00000F08DFB0130C3091ED114
:100FE000402701226262A362266BF30722D4E36AE0
:100FF000244B0620E51800232B60266300F0A0F99F
:101000003900800000F076FB7023E26A5A400E330C
:1010100013402B601C4B23630323A364F8BD1B4ABE
:1010200093421DD900231A4A1A4F6262A362266BAB
:10103000F307DCD5184B144AE3181A60656AA36AF3
:101040000620AD01ED1800F07BF9144900F052FBC9
:101050000100A80200F04EFB0021FFF75DFFC6E78C
:1010600040069A01800E17181A000300BAE7C0461E
:101070000080FCBF08C0004000E0004000F00040DD
:10108000D40900202C10000001030000FEFF000026
:10109000FFFF0000C0FF3F00303000004E0E000098
:1010A0000539013AF8B5D2004C0105001443002B74
:1010B00006D0013B5A4253419B00234302241C4368
:1010C0002E6BF30708D46E23EA6A624013400E4A7F
:1010D000AA1813602E63F8BD0C4B0D4AEB181A606A
:1010E0006B6AAA6A9B0106209F1800F029F909493A
:1010F00000F000FBBF020100380000F0FBFA002105
:10110000FFF70AFFDFE7C0462C1000003030000078
:10111000010300004E0E0000F8B5066B04000D013F
:10112000F30708D4E36A5D4010231D400D4BE3181C
:101130001D602663F8BD0C4B0C4AC3181A60436A45
:10114000826A9B0106209F1800F0FAF8084900F017
:10115000D1FABF020100380000F0CCFA0021FFF7FD
:10116000DBFEDFE72C100000303000000103000040
:101170004E0E0000F8B5DE464E4645465746E0B5F1
:1011800005008B4618000A99914600F0B3FA0A9BB5
:101190006C001E026419304BA400E418636880469A
:1011A0009E4200D966602F1FFBB29A46012B2FD9B1
:1011B000C0238022294FAD009B0179591201E31809
:1011C0001A6000291BD14B4622685B015340E02284
:1011D000134080225201A21813605346012B2FD9CD
:1011E000802380229B01E31812011A604346666047
:1011F0007B51F0BCBB46B246A946A046F8BD786913
:1012000000F078FA013043001B18033BFDD2DAE707
:101210005B46012BCCD1C02303229B01E3181A604B
:10122000023AA3681A42FCD04A46236852015A4047
:10123000E023134080225201A218084F1360AD0032
:1012400058460323216841400B401360012282402D
:10125000A3681A42FCD0C3E7008000406C0900205C
:10126000F0B5D6464F464646440098462418324BC1
:10127000A400E41863688A469146C0B5FF2B02D8E3
:1012800080235B006360061FF6B2012E2FD9C023B6
:1012900080222A4F85009B0179591201E3181A60B8
:1012A00000291BD14B4622685B015340E0221340CA
:1012B00080225201A2181360012E30D9802380228F
:1012C0009B01E31812011A6080235B0063604346B0
:1012D0007B51E0BCBA46B146A846F0BD786900F043
:1012E00009FA013043001B18033BFDD2DAE75346ED
:1012F000012BCCD1C02303229B01E3181A60023AD0
:10130000A3681A42FCD04A46236852015A40E0239F
:10131000134080225201A218084F136085005046E6
:101320000323216841400B40136001228240A368DF
:101330001A42FCD0C2E7C046008000406C09002081
:10134000014B8000C05870476C090020F0B5C646BC
:10135000040000B52348160098460D0000F0CAF9B5
:101360000100300000F0C6F94346069A1B04120340
:1013700013439C4623680600002B22DB1A4B1B48B4
:10138000E218531E9A4180235242120B9B01120312
:10139000D218174B1A60174B1A60130001688B4361
:1013A000FBD12122144B2560E318A6601A60226845
:1013B000002AFCDA6246E26008221A6080BCB84665
:1013C000F0BD3F2322681340AB42D7D1A3681B0571
:1013D0001B0D8342D2D1EE22E368D2021340634553
:1013E000CCD1EBE7001BB7000040FDBF08C00040B8
:1013F00000E0004000F00040043000008023024A7A
:101400009B000B43D362704700800540002310B55A
:101410000100988A1B8B984710BDC046162310B553
:10142000010018885B88984710BDC046F8B547464C
:10143000CE4680B50F1E18D01423994604330400FD
:101440000025012698464B461888434621681B888C
:10145000984701C4431E984101350640AF42F2D17E
:101460003000C0BCB946B046F8BD0126F8E7C0461A
:10147000AA23064A1B0113608D235B00D360044935
:10148000044B19605368002BFCDA7047004002409F
:1014900000B0FA00006002407047C04610B5014835
:1014A000FFF7DAF8001D001070B5074D074EB54282
:1014B00009D20024013E761BB608013608CD01345E
:1014C0009847B442FAD170BD881C0010C41C0010AB
:1014D000054B064A06491A60064A074B1A60100077
:1014E0000B689843FBD1704700E00040BFCDFBFE86
:1014F00008C00040FE7F3C0000F00040044BDB6C65
:10150000002B03D18022034BD2021A607047C046E1
:10151000000011504C201150044A054B1A60054A36
:101520001368DB018033FBD17047C046FFFFFF012A
:1015300000F0004008C000404022034B9A675A6701
:101540001A67DA667047C04600F0014010B5FFF731
:1015500013F910BD70B52849284D294E6D1AAC10ED
:101560002200302C00D930223000920000F0A2F985
:10157000BC2D3DD823002A3B224A052B1DD9302003
:1015800075196D07A446001BEB0F002D03DA611CD3
:101590008C46A1007250C01AE3189B004108F31852
:1015A000C900C9181A605A6008339942FAD1012358
:1015B00003421DD0984360440400A300F250631C12
:1015C0002F2C15D09B00F250A31C2E2C10D09B006A
:1015D000F250E31C2D2C0BD09B00F250231D2C2C21
:1015E00006D09B00F250631D2B2C01D09B00F250C3
:1015F000054B9E6070BDC04600010010C001001088
:1016000000000020C101001000ED00E0002310B533
:10161000294C82B0A367FFF72BFF0122274B1A60EA
:10162000636C012BFCD10322254B1A60224A936B79
:10163000012BFCD1013300930121224A22480433BB
:10164000FFF784FE052301210093204A2048FFF77D
:101650007DFE0022022104201E4BFFF701FE002226
:10166000012105201C4BFFF7FBFD00220021072074
:101670001A4BFFF7F5FD002200210820174BFFF75A
:10168000EFFD8023DB000093002200210920134B93
:10169000FFF770FD0022104B00210620FFF7E0FD50
:1016A0000420FFF74DFE0E4900F024F80100002051
:1016B000FFF7A4FE02B010BD008000403CB0004027
:1016C00030B00040002F685900800240008C8647EF
:1016D00000C00240001BB70040597307006CDC02D9
:1016E00040420F0001480421014B1847C00100206F
:1016F0002D140010114A936F9B0813D21066516687
:10170000002905D0FFE7FFE7FFE7516F106F704733
:1017100004B5002801D00020C04300F0A5FA002144
:1017200004BDC046F0B5146E556E576F166FFFF7C7
:10173000E5FF1466556657671667F0BD000000D0D8
:10174000132370B51D78012D19D014DD1F48FFF744
:1017500065FE06001E48FFF761FE1E4C8022310028
:10176000200000F0A7F8022D2DD01B48FFF74EFEF9
:101770001A4B186070BD1A4B164CA364F5E7184B52
:10178000144C23606360A360E36023616361A36121
:10179000E36123626362A362E36223636363A3631F
:1017A000E36323646364A364E36423656365A365FF
:1017B000E36523666366A366E36623676367A367DF
:1017C000E367A364D1E7064BA364CEE7534400006C
:1017D00053460000680700204C330000CC0900206D
:1017E000E517001007B5604601880A0A0230DF2AB3
:1017F000FAD1C9B2820804D3028840880004104399
:1018000000E00068014A5050039007BD68070020BF
:10181000132310B51C781348FFF700FE012C0BD0E2
:1018200004DD01008022104800F044F80F48FFF763
:10183000EDFD0F4B186010BD0B4C01005422200031
:1018400000F038F80B4B6365A365E36523666366B8
:10185000A366E36623676367A367E3672362E361C5
:10186000E4E7C04653460000680800204C330000FF
:10187000CC0900207918001007B5604601880A0AD3
:101880000230DF2AFAD1C9B2820804D30288408824
:101890000004104300E00068014A5050039007BD67
:1018A0006808002001480421014B1847D00100209E
:1018B0002D140010014B5B6818470000D001002078
:1018C00010B5002800D110BD00F000F9FBE7C046BC
:1018D00010B5094A0300146884B0002C08D0012216
:1018E00000910648524203A9A047012004B010BD50
:1018F00000F036F90020F9E7A0090020C118001017
:1019000000BEFDE710B5FFF7FBFFC04670B5FFF75F
:10191000CBFD074D074EB54209D20024013E761B90
:10192000B608013608CD01349847B442FAD170BDEB
:10193000C41C0010C81C0010030010B508001100E2
:101940001B68984710BDC046F8B5437D07000D00E1
:101950001600002B38D0002A1ADD0B780A2B18D07D
:101960000020012E09D0012421006B5C01340A2BD8
:101970001AD0B442F8D1864203DD311A3B682818E8
:101980009847AD19013D2B780D3B5A4253413B75A9
:10199000F8BD037D002BE3D102210E483B68984738
:1019A000012EEED00120DEE76B1E5B5C0D2BE0D03C
:1019B000884203DA091A3B6828189847054802212B
:1019C0003B6898472000D4E7036811002800984737
:1019D000DEE7C046C01D0010F0B54646D6464F466D
:1019E000C0B582B090461C0006000D00FFF78AFAD1
:1019F00000232F4A12184B41002B02DA01222D4BF3
:101A000052422D4908008A4600F036F981466B1C87
:101A100003D1300000F0EEF80500002C27D0274F4E
:101A2000274B1C68002C18D04346002B21D1254B96
:101A3000984602E02469002C0FD02368002BF9D0CF
:101A400043461B68002B01D09C42F3D120002A00A2
:101A50003100B8472469002CEFD14B46002B23D12D
:101A6000280002B0E0BCBA46B146A846F0BD164F09
:101A7000D6E7144B984602E02469002CEDD0236889
:101A8000002BF9D043461B68002B01D0A342F3D1B1
:101A90002A0031002000B8476B460A222000DA7184
:101AA000D91D093AB847E7E7504600F0D5F8D7E71F
:101AB00040420F00FFFFFF7FE001002049190010A6
:101AC000980900209C09002039190010F0B5CE4675
:101AD000474680B583B06B460600DD1D2870FFF7D2
:101AE00011FA0023194A12184B41002B02DA012285
:101AF000174B524217490800894600F0BDF8164BB3
:101B000080461C68002C14D0144F02E02469002C7D
:101B10000FD02368002BF9D03B68002B01D09C42EA
:101B2000F4D1200001222900FFF70EFF2469002CC8
:101B3000EFD14346002B05D1300003B0C0BCB946FD
:101B4000B046F0BD484600F087F8F5E740420F0088
:101B5000FFFFFF7FE0010020980900209C09002082
:101B600070B5040000F046F80123010005000122D1
:101B70002000FFF731FF084B1C68002C06D063687B
:101B8000002B05D098472469002CF8D1280070BD9F
:101B90002469002CF3D1F9E79809002001230121E1
:101BA000084A1360084A1360084A080013689843FB
:101BB000FBD1074A11608021490013680B42FCD019
:101BC0007047C04600E0004000F0004008C0004000
:101BD00000C0044000B5054B83B001000093002213
:101BE0000B230348FEF778FD03B000BD4C1D001029
:101BF000D8090020030084469B070BD00300032173
:101C000002E001330B4206D01A78002AF9D162466D
:101C1000981A7047030019680C4A0D488A188A43BD
:101C200002420FD15968094A04338A188A43024292
:101C300008D15968054A04338A188A430242F1D010
:101C400000E001331A78002AFBD1E0E7FFFEFEFE38
:101C500080808080F8B5C04601B40248844601BC4B
:101C6000604700BF5901002001B40248844601BC0E
:101C7000604700BF8101002001B40248844601BCD6
:101C8000604700BFC1000020D1140010FD140010F7
:101C9000E5160010A51800104117001011180010CB
:101CA0000D16001019150010391500104D150010F3
:101CB0006508001055150010D90B0010991400107C
:081CC00095070010B1020010AD
:101CC8000A2A2A2A2050414E4943202A2A2A0A0051
:101CD8000A000000486172647761726520616C6176
:101CE800726D20256420616C726561647920636C73
:101CF80061696D65640000004861726420617373F6
:101D08006572740052656C6561736500626F6F740B
:101D1800325F77323571303830000000322E322E83
:101D2800300000007069636F0000000076676D5F27
:101D380073636F70650000004A756E20323220327E
:101D4800303236004E6F20444D41206368616E6E1C
:101D5800656C732061726520617661696C61626C83
:101D68006500000006005250D3F075420C1D0010AB
:101D780006005250E182887F141D00100600525060
:101D8800ABB36053241D001006005250BBFF3CB695
:101D98002C1D001006005250861C0302341D001032
:101DA800060052505422A29D401D001005005250BA
:0C1DB800DE65F468081F00100D0A000032
:101DC4006C1D0010781D0010841D0010901D001063
:0C1DD4009C1D0010A81D0010B41D001084
:101DE000F0B5C646160000B504001F000268EFF308
:101DF000108172B61368002BFCD0BFF35F8F0423F1
:101E0000E3562268002B2BDBBFF35F8F00201060AE
:101E100081F31088D02212061278002552B2904623
:101E20009A420ED1002080BCB846F0BDBFF35F8F50
:101E3000156081F310883000390000F035F8002873
:101E4000F0D12268EFF3108172B61368002BFCD03A
:101E5000BFF35F8F237922687F2BE7D9434602E0E7
:101E6000D0231B061B682371BFF35F8F0023136011
:101E700081F310880120D6E70268EFF3108172B673
:101E80001368002BFCD0BFF35F8FFF23037103683F
:101E9000BFF35F8F00221A6081F3108840BF704744
:101EA0007047C0460000000001B40248844601BCEF
:101EB000604700BFE10D00101000000000000000AE
:101EC0000000000000000000000000000000000012
:101ED000E8050020000000000000000000000000F5
:101EE000503300004C3300005433000052330000E4
:101EF0004D5300004D4300005334000043340000B4
:081F00000000000000000000D9
:04000005100001E9FD
:00000001FF
